S012000061746D656761385F52582E7372656362
S113000012C02CC02BC02AC029C028C027C026C0BB
S113001025C024C023C022C021C020C01FC01EC0D0
S11300201DC01CC01BC011241FBECFE5D4E0DEBF21
S1130030CDBF10E0A0E6B0E0E8EAF1E002C0059030
S11300400D92A036B107D9F710E0A0E6B0E001C0E8
S11300501D92A036B107E1F702D0A4C0D1CF8FEF33
S113006084BB15BA87BB18BA599860E070E080EA7F
S113007090E435D070BD69B988E18AB980B58860EB
S113008080BD80B5806280BD80B5866080BD9FEFF5
S11300905F9BFECF8CB18F3FD9F75F9BFECF8CB1B6
S11300A08E3E09F498BB2FED32E242E021503040FD
S11300B04040E1F700C0000018BA2FED32E242E000
S11300C0215030404040E1F700C00000E1CF5F9B89
S11300D0FECF8CB108955D9BFECF8CB9089541D0BD
S11300E0A8F19E57A8F1985160F039F1983070F555
S11300F0092E9927660F771F881F991F0A94D1F735
S11301001CC0BB27993F4CF4B111B1E0B62B672F4B
S1130110782F8827985FB1F708C0869577956795FB
S1130120B79508F4B1609395C1F7BB0F30F411F49F
S113013060FF03C06F5F7F4F8F4F3EF490958095B3
S1130140709561957F4F8F4F9F4F0895689424C099
S113015022C057FD9058440F551F59F05F3F71F06E
S11301604795880F97FB991F61F09F3F79F087951A
S11301700895121613061406551FF2CF4695F1DFA3
S113018008C0161617061806991FF1CF8695710533
S1130190610508940895E894BB2766277727CB0167
S10B01A097F90895F894FFCFCC
S9030000FC
