:100000000C9434000C9451000C9451000C94510049
:100010000C9451000C9451000C9451000C9451001C
:100020000C9451000C9451000C9451000C9451000C
:100030000C9451000C9451000C9451000C945100FC
:100040000C9451000C9451000C9451000C945100EC
:100050000C9451000C9451000C9451000C945100DC
:100060000C9451000C94510011241FBECFEFD8E026
:10007000DEBFCDBF11E0A0E0B1E0E2EAF3E002C0F4
:1000800005900D92A030B107D9F711E0A0E0B1E0E2
:1000900001C01D92A830B107E1F70E9497000C94AF
:1000A000CF010C940000813079F4613019F4409A4A
:1000B00041982CC0623019F4419A409827C06623B9
:1000C000A1F44098419822C0823079F4613019F44B
:1000D000429A43981BC0623019F4439A429816C062
:1000E0006623A1F44398429811C0833079F46130BB
:1000F00019F45C9A5F980895623019F45F9A5C98DD
:100100000895662399F45C985F980895843071F49B
:10011000613019F4449A45980895623019F4459A6B
:1001200044980895662311F44498459808958FEFF4
:1001300084B915B887B918B88CEF8AB91BB8C0E86C
:10014000D0E08881826A888301E810E0F80180812C
:10015000896180830F2EFFE1EF2EFEE4FF2EF02D4C
:10016000E6E8F0E0F182E082E0ECF0E080818D7F73
:10017000808360E070E080EA90E40E946C017093FC
:10018000C5006093C400E1ECF0E080818861808369
:10019000E2ECF0E0808188608083808180628083EF
:1001A00080818660808378948881826A8883E80170
:1001B000888189618883E6E8F0E0F182E082E0EB03
:1001C000F0E08081836A8083E1EBF0E080818660EB
:1001D00080831092B20080E88093B3008093B400D3
:1001E00094B5936A94BD95B5946095BD16BC87BDD2
:1001F00088BD81E061E00E94530082E061E00E94DE
:10020000530083E061E00E94530084E061E00E94BB
:1002100053007894A0ECB0E0E6ECF0E08C918823F9
:10022000ECF78081809307018F3FC1F7E0ECF0E0AD
:10023000A6ECB0E06AE870E008E810E0808188236E
:10024000ECF74C914093060180818823ECF72C91C8
:100250002093050180818823ECF78C918093040121
:1002600030E0022E232F000C221F330B000C221F24
:10027000331F90E0880F991F880F991F822B932BB3
:100280009093030180930201403689F4209101018B
:100290002F5F209301012A3088F210920101880F0C
:1002A000991F880F991FE80199838883C7CF41362A
:1002B00029F6209100012F5F209300012A3008F4D5
:1002C000BDCF10920001880F991F880F991FEB0175
:1002D00099838883B3CF089541D0A8F19E57A8F1A0
:1002E000985160F039F1983070F5092E9927660F12
:1002F000771F881F991F0A94D1F71CC0BB27993F0D
:100300004CF4B111B1E0B62B672F782F8827985F96
:10031000B1F708C0869577956795B79508F4B160F1
:100320009395C1F7BB0F30F411F460FF03C06F5F0A
:100330007F4F8F4F3EF490958095709561957F4FDC
:100340008F4F9F4F0895689424C022C057FD905846
:10035000440F551F59F05F3F71F04795880F97FB89
:10036000991F61F09F3F79F0879508951216130643
:100370001406551FF2CF4695F1DF08C01616170672
:100380001806991FF1CF86957105610508940895A7
:10039000E894BB2766277727CB0197F90895F8944F
:0203A000FFCF8D
:00000001FF
