:100000000C9434000C9451000C9451000C94510049
:100010000C9451000C9451000C9451000C9451001C
:100020000C9451000C9451000C9451000C9451000C
:100030000C9451000C9451000C9451000C945100FC
:100040000C9451000C9451000C9451000C945100EC
:100050000C94B3000C94C5000C9451000C94510006
:100060000C9451000C94510011241FBECFEFD8E026
:10007000DEBFCDBF11E0A0E0B1E0ECE5F3E002C0EF
:1000800005900D92A030B107D9F711E0A0E0B1E0E2
:1000900001C01D92A330B107E1F70E945B000C94F0
:1000A000AC010C940000E0ECF0E0908195FFFDCFF6
:1000B0008093C60008958FEF84B915B817B818B8A3
:1000C0008CEF8AB91BB8E0ECF0E080818D7F8083F3
:1000D00060E070E080EA90E40E9449017093C500FE
:1000E0006093C400E1ECF0E08081886180838081CE
:1000F000806C8083E2ECF0E0808188608083808186
:1001000080628083808186608083CAE7D0E08881B6
:100110008C608883ECE7F0E0808180668083888152
:1001200080688883E0E8F0E08081826A8083E1E88B
:10013000F0E08081896180838FE19EE49093870065
:100140008093860078948FE39DE0A3E081509040F7
:10015000A040E1F700C000008FEF0E9453008881AB
:1001600080648883FFCF1F920F920FB60F921124E5
:100170008F939F9398B181E0892788B99F918F9140
:100180000F900FBE0F901F9018951F920F920FB6F1
:100190000F9211242F933F934F935F936F937F930D
:1001A0008F939F93AF93BF93CF93DF93EF93FF937F
:1001B000C0917800D09179008C2F90E0082E892F83
:1001C000000C881F990B000C881F991F2D2F30E001
:1001D000220F331F220F331F822B932B9093020188
:1001E0008093010123E0893E920734F088EE93E08A
:1001F000909302018093010180917C00803619F078
:10020000813679F517C0109200018091010190911B
:100210000201909389008093880080E60E94530039
:100220008C2F0E9453008D2F0E94530081E68093F3
:100230007C0017C081E080930001809101019091C2
:10024000020190938B0080938A0081E60E94530004
:100250008C2F0E9453008D2F0E94530080E68093C4
:100260007C00EAE7F0E0808180648083FF91EF9179
:10027000DF91CF91BF91AF919F918F917F916F91BE
:100280005F914F913F912F910F900FBE0F901F9054
:10029000189541D0A8F19E57A8F1985160F039F116
:1002A000983070F5092E9927660F771F881F991FC0
:1002B0000A94D1F71CC0BB27993F4CF4B111B1E0AF
:1002C000B62B672F782F8827985FB1F708C08695DF
:1002D00077956795B79508F4B1609395C1F7BB0F13
:1002E00030F411F460FF03C06F5F7F4F8F4F3EF417
:1002F00090958095709561957F4F8F4F9F4F089592
:10030000689424C022C057FD9058440F551F59F0DF
:100310005F3F71F04795880F97FB991F61F09F3FF2
:1003200079F087950895121613061406551FF2CF1B
:100330004695F1DF08C0161617061806991FF1CF6B
:1003400086957105610508940895E894BB27662792
:0C0350007727CB0197F90895F894FFCFB0
:00000001FF
